{
  "contractName": "UtopiaPresale",
  "abi": [
    {
      "inputs": [
        {
          "internalType": "uint256",
          "name": "_bnbUtopiaRate",
          "type": "uint256"
        },
        {
          "internalType": "contract IERC20",
          "name": "_token",
          "type": "address"
        },
        {
          "internalType": "uint256",
          "name": "_openingTime",
          "type": "uint256"
        }
      ],
      "stateMutability": "nonpayable",
      "type": "constructor"
    },
    {
      "anonymous": false,
      "inputs": [],
      "name": "CrowdsaleFinalized",
      "type": "event"
    },
    {
      "anonymous": false,
      "inputs": [
        {
          "indexed": true,
          "internalType": "address",
          "name": "purchaser",
          "type": "address"
        },
        {
          "indexed": true,
          "internalType": "address",
          "name": "beneficiary",
          "type": "address"
        },
        {
          "indexed": false,
          "internalType": "uint256",
          "name": "bnbValue",
          "type": "uint256"
        },
        {
          "indexed": false,
          "internalType": "uint256",
          "name": "tokens",
          "type": "uint256"
        }
      ],
      "name": "TokenPurchase",
      "type": "event"
    },
    {
      "anonymous": false,
      "inputs": [
        {
          "indexed": true,
          "internalType": "address",
          "name": "withdrawer",
          "type": "address"
        },
        {
          "indexed": false,
          "internalType": "uint256",
          "name": "tokens",
          "type": "uint256"
        }
      ],
      "name": "TokenWithdrawal",
      "type": "event"
    },
    {
      "stateMutability": "payable",
      "type": "fallback",
      "payable": true
    },
    {
      "inputs": [],
      "name": "bnbUtopiaRate",
      "outputs": [
        {
          "internalType": "uint256",
          "name": "",
          "type": "uint256"
        }
      ],
      "stateMutability": "view",
      "type": "function",
      "constant": true
    },
    {
      "inputs": [],
      "name": "finalized",
      "outputs": [
        {
          "internalType": "bool",
          "name": "",
          "type": "bool"
        }
      ],
      "stateMutability": "view",
      "type": "function",
      "constant": true
    },
    {
      "inputs": [],
      "name": "openingTime",
      "outputs": [
        {
          "internalType": "uint256",
          "name": "",
          "type": "uint256"
        }
      ],
      "stateMutability": "view",
      "type": "function",
      "constant": true
    },
    {
      "inputs": [
        {
          "internalType": "address",
          "name": "",
          "type": "address"
        }
      ],
      "name": "purchasedBnb",
      "outputs": [
        {
          "internalType": "uint256",
          "name": "",
          "type": "uint256"
        }
      ],
      "stateMutability": "view",
      "type": "function",
      "constant": true
    },
    {
      "inputs": [
        {
          "internalType": "uint256",
          "name": "",
          "type": "uint256"
        }
      ],
      "name": "purchaserList",
      "outputs": [
        {
          "internalType": "address",
          "name": "",
          "type": "address"
        }
      ],
      "stateMutability": "view",
      "type": "function",
      "constant": true
    },
    {
      "inputs": [],
      "name": "token",
      "outputs": [
        {
          "internalType": "contract IERC20",
          "name": "",
          "type": "address"
        }
      ],
      "stateMutability": "view",
      "type": "function",
      "constant": true
    },
    {
      "inputs": [],
      "name": "tokensAlreadyPurchased",
      "outputs": [
        {
          "internalType": "uint256",
          "name": "",
          "type": "uint256"
        }
      ],
      "stateMutability": "view",
      "type": "function",
      "constant": true
    },
    {
      "inputs": [],
      "name": "weiRaised",
      "outputs": [
        {
          "internalType": "uint256",
          "name": "",
          "type": "uint256"
        }
      ],
      "stateMutability": "view",
      "type": "function",
      "constant": true
    },
    {
      "stateMutability": "payable",
      "type": "receive",
      "payable": true
    },
    {
      "inputs": [],
      "name": "getOpeningTime",
      "outputs": [
        {
          "internalType": "uint256",
          "name": "",
          "type": "uint256"
        }
      ],
      "stateMutability": "view",
      "type": "function",
      "constant": true
    },
    {
      "inputs": [],
      "name": "isOpen",
      "outputs": [
        {
          "internalType": "bool",
          "name": "",
          "type": "bool"
        }
      ],
      "stateMutability": "view",
      "type": "function",
      "constant": true
    },
    {
      "inputs": [
        {
          "internalType": "address",
          "name": "_beneficiary",
          "type": "address"
        }
      ],
      "name": "buyTokens",
      "outputs": [],
      "stateMutability": "payable",
      "type": "function",
      "payable": true
    },
    {
      "inputs": [
        {
          "internalType": "address",
          "name": "_beneficiary",
          "type": "address"
        },
        {
          "internalType": "uint256",
          "name": "_weiAmountForPurchase",
          "type": "uint256"
        }
      ],
      "name": "_preValidatePurchase",
      "outputs": [
        {
          "internalType": "uint256",
          "name": "",
          "type": "uint256"
        }
      ],
      "stateMutability": "view",
      "type": "function",
      "constant": true
    },
    {
      "inputs": [
        {
          "internalType": "uint256",
          "name": "_weiAmountForPurchase",
          "type": "uint256"
        }
      ],
      "name": "_getTokenAmount",
      "outputs": [
        {
          "internalType": "uint256",
          "name": "",
          "type": "uint256"
        }
      ],
      "stateMutability": "view",
      "type": "function",
      "constant": true
    },
    {
      "inputs": [],
      "name": "forwardFunds",
      "outputs": [],
      "stateMutability": "nonpayable",
      "type": "function"
    },
    {
      "inputs": [
        {
          "internalType": "address",
          "name": "_beneficiary",
          "type": "address"
        }
      ],
      "name": "maxBnb",
      "outputs": [
        {
          "internalType": "uint256",
          "name": "",
          "type": "uint256"
        }
      ],
      "stateMutability": "view",
      "type": "function",
      "constant": true
    },
    {
      "inputs": [],
      "name": "numberOfPurchasers",
      "outputs": [
        {
          "internalType": "uint256",
          "name": "",
          "type": "uint256"
        }
      ],
      "stateMutability": "view",
      "type": "function",
      "constant": true
    },
    {
      "inputs": [],
      "name": "finalize",
      "outputs": [],
      "stateMutability": "nonpayable",
      "type": "function"
    },
    {
      "inputs": [],
      "name": "withdrawTokens",
      "outputs": [],
      "stateMutability": "nonpayable",
      "type": "function"
    },
    {
      "inputs": [
        {
          "internalType": "address",
          "name": "tokenAddress",
          "type": "address"
        },
        {
          "internalType": "uint256",
          "name": "tokens",
          "type": "uint256"
        }
      ],
      "name": "transferAnyERC20Token",
      "outputs": [],
      "stateMutability": "nonpayable",
      "type": "function"
    },
    {
      "inputs": [
        {
          "internalType": "address",
          "name": "_address",
          "type": "address"
        },
        {
          "internalType": "uint256",
          "name": "weiAllowed",
          "type": "uint256"
        }
      ],
      "name": "setBnbAllowanceForUser",
      "outputs": [],
      "stateMutability": "nonpayable",
      "type": "function"
    },
    {
      "inputs": [
        {
          "internalType": "address",
          "name": "_address",
          "type": "address"
        }
      ],
      "name": "viewBnbAllowanceForUser",
      "outputs": [
        {
          "internalType": "uint256",
          "name": "",
          "type": "uint256"
        }
      ],
      "stateMutability": "view",
      "type": "function",
      "constant": true
    }
  ],
  "bytecode": "0x608060405234801561001057600080fd5b50604051611b78380380611b788339818101604052606081101561003357600080fd5b810190808051906020019092919080519060200190929190805190602001909291905050506000831161006557600080fd5b600073ffffffffffffffffffffffffffffffffffffffff168273ffffffffffffffffffffffffffffffffffffffff16141561009f57600080fd5b82600181905550816000806101000a81548173ffffffffffffffffffffffffffffffffffffffff021916908373ffffffffffffffffffffffffffffffffffffffff16021790555033600360006101000a81548173ffffffffffffffffffffffffffffffffffffffff021916908373ffffffffffffffffffffffffffffffffffffffff1602179055506000600760006101000a81548160ff02191690831515021790555080600881905550505050611a1d8061015b6000396000f3fe60806040526004361061012e5760003560e01c80638815ee86116100ab578063d74635731161006f578063d746357314610496578063dc39d06d146104c1578063e7acbe661461051c578063ec8ac4d814610577578063fc0c546a146105bb578063fcb2acd5146105fc57610138565b80638815ee86146103ab5780638d8f2adb146104105780639d73528614610427578063b3f05b971461043e578063b7a8807c1461046b57610138565b806354c461e8116100f257806354c461e81461023c578063580c2ae9146102a15780637a99bb0a146102cc57806380a068e11461031b578063862ac7701461034657610138565b8063093e78631461013d5780634042b66f1461016857806347535d7b146101935780634bb278f3146101c05780634e780db2146101d757610138565b3661013857600080fd5b600080fd5b34801561014957600080fd5b5061015261066b565b6040518082815260200191505060405180910390f35b34801561017457600080fd5b5061017d610671565b6040518082815260200191505060405180910390f35b34801561019f57600080fd5b506101a8610677565b60405180821515815260200191505060405180910390f35b3480156101cc57600080fd5b506101d5610684565b005b3480156101e357600080fd5b50610226600480360360208110156101fa57600080fd5b81019080803573ffffffffffffffffffffffffffffffffffffffff169060200190929190505050610813565b6040518082815260200191505060405180910390f35b34801561024857600080fd5b5061028b6004803603602081101561025f57600080fd5b81019080803573ffffffffffffffffffffffffffffffffffffffff1690602001909291905050506108ad565b6040518082815260200191505060405180910390f35b3480156102ad57600080fd5b506102b66108c5565b6040518082815260200191505060405180910390f35b3480156102d857600080fd5b50610305600480360360208110156102ef57600080fd5b81019080803590602001909291905050506108d2565b6040518082815260200191505060405180910390f35b34801561032757600080fd5b50610330610906565b6040518082815260200191505060405180910390f35b34801561035257600080fd5b506103956004803603602081101561036957600080fd5b81019080803573ffffffffffffffffffffffffffffffffffffffff16906020019092919050505061090c565b6040518082815260200191505060405180910390f35b3480156103b757600080fd5b506103e4600480360360208110156103ce57600080fd5b8101908080359060200190929190505050610955565b604051808273ffffffffffffffffffffffffffffffffffffffff16815260200191505060405180910390f35b34801561041c57600080fd5b50610425610991565b005b34801561043357600080fd5b5061043c610c38565b005b34801561044a57600080fd5b50610453610d66565b60405180821515815260200191505060405180910390f35b34801561047757600080fd5b50610480610d79565b6040518082815260200191505060405180910390f35b3480156104a257600080fd5b506104ab610d7f565b6040518082815260200191505060405180910390f35b3480156104cd57600080fd5b5061051a600480360360408110156104e457600080fd5b81019080803573ffffffffffffffffffffffffffffffffffffffff16906020019092919080359060200190929190505050610d89565b005b34801561052857600080fd5b506105756004803603604081101561053f57600080fd5b81019080803573ffffffffffffffffffffffffffffffffffffffff16906020019092919080359060200190929190505050610f1f565b005b6105b96004803603602081101561058d57600080fd5b81019080803573ffffffffffffffffffffffffffffffffffffffff16906020019092919050505061102a565b005b3480156105c757600080fd5b506105d0611205565b604051808273ffffffffffffffffffffffffffffffffffffffff16815260200191505060405180910390f35b34801561060857600080fd5b506106556004803603604081101561061f57600080fd5b81019080803573ffffffffffffffffffffffffffffffffffffffff16906020019092919080359060200190929190505050611229565b6040518082815260200191505060405180910390f35b60095481565b60025481565b6000600854421015905090565b3373ffffffffffffffffffffffffffffffffffffffff16600360009054906101000a900473ffffffffffffffffffffffffffffffffffffffff1673ffffffffffffffffffffffffffffffffffffffff1614610747576040517f08c379a000000000000000000000000000000000000000000000000000000000815260040180806020018281038252600a8152602001807f6e6f742061646d696e210000000000000000000000000000000000000000000081525060200191505060405180910390fd5b600760009054906101000a900460ff16156107ca576040517f08c379a000000000000000000000000000000000000000000000000000000000815260040180806020018281038252601b8152602001807f43726f776473616c6520616c72656164792066696e616c697a6564000000000081525060200191505060405180910390fd5b6001600760006101000a81548160ff0219169083151502179055507f9270cc390c096600a1c17c44345a1ba689fafd99d97487b10cfccf86cf73183660405160405180910390a1565b60006108a6600460008473ffffffffffffffffffffffffffffffffffffffff1673ffffffffffffffffffffffffffffffffffffffff16815260200190815260200160002054600660008573ffffffffffffffffffffffffffffffffffffffff1673ffffffffffffffffffffffffffffffffffffffff1681526020019081526020016000205461147190919063ffffffff16565b9050919050565b60046020528060005260406000206000915090505481565b6000600580549050905090565b60006108ff633b9aca006108f1600154856114bb90919063ffffffff16565b61154190919063ffffffff16565b9050919050565b60015481565b6000600660008373ffffffffffffffffffffffffffffffffffffffff1673ffffffffffffffffffffffffffffffffffffffff168152602001908152602001600020549050919050565b6005818154811061096257fe5b906000526020600020016000915054906101000a900473ffffffffffffffffffffffffffffffffffffffff1681565b600760009054906101000a900460ff16610a13576040517f08c379a00000000000000000000000000000000000000000000000000000000081526004018080602001828103825260178152602001807f43726f776473616c65206e6f742066696e616c697a656400000000000000000081525060200191505060405180910390fd5b6000610a5d600460003373ffffffffffffffffffffffffffffffffffffffff1673ffffffffffffffffffffffffffffffffffffffff168152602001908152602001600020546108d2565b905060008111610ad5576040517f08c379a000000000000000000000000000000000000000000000000000000000815260040180806020018281038252601e8152602001807f4e6f20746f6b656e73206c65667420746f2062652077697468647261776e000081525060200191505060405180910390fd5b60008054906101000a900473ffffffffffffffffffffffffffffffffffffffff1673ffffffffffffffffffffffffffffffffffffffff1663a9059cbb33836040518363ffffffff1660e01b8152600401808373ffffffffffffffffffffffffffffffffffffffff16815260200182815260200192505050602060405180830381600087803b158015610b6657600080fd5b505af1158015610b7a573d6000803e3d6000fd5b505050506040513d6020811015610b9057600080fd5b8101908080519060200190929190505050506000600460003373ffffffffffffffffffffffffffffffffffffffff1673ffffffffffffffffffffffffffffffffffffffff168152602001908152602001600020819055503373ffffffffffffffffffffffffffffffffffffffff167feddb53e10e60b3a2396b4222b3db092137bdbf7a6fecceaf2b0b438ff0ddc66e826040518082815260200191505060405180910390a250565b3373ffffffffffffffffffffffffffffffffffffffff16600360009054906101000a900473ffffffffffffffffffffffffffffffffffffffff1673ffffffffffffffffffffffffffffffffffffffff1614610cfb576040517f08c379a000000000000000000000000000000000000000000000000000000000815260040180806020018281038252600a8152602001807f6e6f742061646d696e210000000000000000000000000000000000000000000081525060200191505060405180910390fd5b600360009054906101000a900473ffffffffffffffffffffffffffffffffffffffff1673ffffffffffffffffffffffffffffffffffffffff166108fc479081150290604051600060405180830381858888f19350505050158015610d63573d6000803e3d6000fd5b50565b600760009054906101000a900460ff1681565b60085481565b6000600854905090565b3373ffffffffffffffffffffffffffffffffffffffff16600360009054906101000a900473ffffffffffffffffffffffffffffffffffffffff1673ffffffffffffffffffffffffffffffffffffffff1614610e4c576040517f08c379a000000000000000000000000000000000000000000000000000000000815260040180806020018281038252600a8152602001807f6e6f742061646d696e210000000000000000000000000000000000000000000081525060200191505060405180910390fd5b8173ffffffffffffffffffffffffffffffffffffffff1663a9059cbb600360009054906101000a900473ffffffffffffffffffffffffffffffffffffffff16836040518363ffffffff1660e01b8152600401808373ffffffffffffffffffffffffffffffffffffffff16815260200182815260200192505050602060405180830381600087803b158015610edf57600080fd5b505af1158015610ef3573d6000803e3d6000fd5b505050506040513d6020811015610f0957600080fd5b8101908080519060200190929190505050505050565b3373ffffffffffffffffffffffffffffffffffffffff16600360009054906101000a900473ffffffffffffffffffffffffffffffffffffffff1673ffffffffffffffffffffffffffffffffffffffff1614610fe2576040517f08c379a000000000000000000000000000000000000000000000000000000000815260040180806020018281038252600a8152602001807f6e6f742061646d696e210000000000000000000000000000000000000000000081525060200191505060405180910390fd5b80600660008473ffffffffffffffffffffffffffffffffffffffff1673ffffffffffffffffffffffffffffffffffffffff168152602001908152602001600020819055505050565b6000600660008373ffffffffffffffffffffffffffffffffffffffff1673ffffffffffffffffffffffffffffffffffffffff16815260200190815260200160002054116110c2576040517f08c379a00000000000000000000000000000000000000000000000000000000081526004018080602001828103825260308152602001806119b86030913960400191505060405180910390fd5b60006110cd82610813565b905060008134116110de57346110e0565b815b90506110ec8382611229565b90506000811115611198576000611102826108d2565b90506111198260025461158b90919063ffffffff16565b6002819055508373ffffffffffffffffffffffffffffffffffffffff163373ffffffffffffffffffffffffffffffffffffffff167f623b3804fa71d67900d064613da8f94b9617215ee90799290593e1745087ad188484604051808381526020018281526020019250505060405180910390a36111968483611613565b505b803411156112005760006111b5823461147190919063ffffffff16565b90503373ffffffffffffffffffffffffffffffffffffffff166108fc829081150290604051600060405180830381858888f193505050501580156111fd573d6000803e3d6000fd5b50505b505050565b60008054906101000a900473ffffffffffffffffffffffffffffffffffffffff1681565b60008073ffffffffffffffffffffffffffffffffffffffff168373ffffffffffffffffffffffffffffffffffffffff16141561126457600080fd5b600082141561127257600080fd5b600061127d836108d2565b90506112946009548261158b90919063ffffffff16565b60008054906101000a900473ffffffffffffffffffffffffffffffffffffffff1673ffffffffffffffffffffffffffffffffffffffff166370a08231306040518263ffffffff1660e01b8152600401808273ffffffffffffffffffffffffffffffffffffffff16815260200191505060206040518083038186803b15801561131b57600080fd5b505afa15801561132f573d6000803e3d6000fd5b505050506040513d602081101561134557600080fd5b810190808051906020019092919050505010611364578291505061146b565b61143a60095460008054906101000a900473ffffffffffffffffffffffffffffffffffffffff1673ffffffffffffffffffffffffffffffffffffffff166370a08231306040518263ffffffff1660e01b8152600401808273ffffffffffffffffffffffffffffffffffffffff16815260200191505060206040518083038186803b1580156113f157600080fd5b505afa158015611405573d6000803e3d6000fd5b505050506040513d602081101561141b57600080fd5b810190808051906020019092919050505061147190919063ffffffff16565b9050611467600154611459633b9aca00846114bb90919063ffffffff16565b61154190919063ffffffff16565b9150505b92915050565b60006114b383836040518060400160405280601e81526020017f536166654d6174683a207375627472616374696f6e206f766572666c6f770000815250611810565b905092915050565b6000808314156114ce576000905061153b565b60008284029050828482816114df57fe5b0414611536576040517f08c379a00000000000000000000000000000000000000000000000000000000081526004018080602001828103825260218152602001806119976021913960400191505060405180910390fd5b809150505b92915050565b600061158383836040518060400160405280601a81526020017f536166654d6174683a206469766973696f6e206279207a65726f0000000000008152506118d0565b905092915050565b600080828401905083811015611609576040517f08c379a000000000000000000000000000000000000000000000000000000000815260040180806020018281038252601b8152602001807f536166654d6174683a206164646974696f6e206f766572666c6f77000000000081525060200191505060405180910390fd5b8091505092915050565b6000600460008473ffffffffffffffffffffffffffffffffffffffff1673ffffffffffffffffffffffffffffffffffffffff1681526020019081526020016000205414156116bf576005829080600181540180825580915050600190039060005260206000200160009091909190916101000a81548173ffffffffffffffffffffffffffffffffffffffff021916908373ffffffffffffffffffffffffffffffffffffffff1602179055505b61171181600460008573ffffffffffffffffffffffffffffffffffffffff1673ffffffffffffffffffffffffffffffffffffffff1681526020019081526020016000205461158b90919063ffffffff16565b600460008473ffffffffffffffffffffffffffffffffffffffff1673ffffffffffffffffffffffffffffffffffffffff168152602001908152602001600020819055506117a681600660008573ffffffffffffffffffffffffffffffffffffffff1673ffffffffffffffffffffffffffffffffffffffff1681526020019081526020016000205461147190919063ffffffff16565b600660008473ffffffffffffffffffffffffffffffffffffffff1673ffffffffffffffffffffffffffffffffffffffff168152602001908152602001600020819055506118066117f5826108d2565b60095461158b90919063ffffffff16565b6009819055505050565b60008383111582906118bd576040517f08c379a00000000000000000000000000000000000000000000000000000000081526004018080602001828103825283818151815260200191508051906020019080838360005b83811015611882578082015181840152602081019050611867565b50505050905090810190601f1680156118af5780820380516001836020036101000a031916815260200191505b509250505060405180910390fd5b5060008385039050809150509392505050565b6000808311829061197c576040517f08c379a00000000000000000000000000000000000000000000000000000000081526004018080602001828103825283818151815260200191508051906020019080838360005b83811015611941578082015181840152602081019050611926565b50505050905090810190601f16801561196e5780820380516001836020036101000a031916815260200191505b509250505060405180910390fd5b50600083858161198857fe5b04905080915050939250505056fe536166654d6174683a206d756c7469706c69636174696f6e206f766572666c6f7742656e656669636961727920646f6573206e6f74206861766520616e7920426e6220616c6c6f77616e6365206c656674a2646970667358221220fbf015c30741d1974eef543943458e95cf4986eb3f34c93d52a18f33756094dc64736f6c634300060c0033",
  "immutableReferences": {},
  "source": "\r\n// SPDX-License-Identifier: Unlicensed\r\npragma solidity ^0.6.12;\r\n\r\ninterface IERC20 {\r\n\r\n    function totalSupply() external view returns (uint256);\r\n\r\n    /**\r\n     * @dev Returns the amount of tokens owned by `account`.\r\n     */\r\n    function balanceOf(address account) external view returns (uint256);\r\n\r\n    /**\r\n     * @dev Moves `amount` tokens from the caller's account to `recipient`.\r\n     *\r\n     * Returns a boolean value indicating whether the operation succeeded.\r\n     *\r\n     * Emits a {Transfer} event.\r\n     */\r\n    function transfer(address recipient, uint256 amount) external returns (bool);\r\n\r\n    /**\r\n     * @dev Returns the remaining number of tokens that `spender` will be\r\n     * allowed to spend on behalf of `owner` through {transferFrom}. This is\r\n     * zero by default.\r\n     *\r\n     * This value changes when {approve} or {transferFrom} are called.\r\n     */\r\n    function allowance(address owner, address spender) external view returns (uint256);\r\n\r\n    /**\r\n     * @dev Sets `amount` as the allowance of `spender` over the caller's tokens.\r\n     *\r\n     * Returns a boolean value indicating whether the operation succeeded.\r\n     *\r\n     * IMPORTANT: Beware that changing an allowance with this method brings the risk\r\n     * that someone may use both the old and the new allowance by unfortunate\r\n     * transaction ordering. One possible solution to mitigate this race\r\n     * condition is to first reduce the spender's allowance to 0 and set the\r\n     * desired value afterwards:\r\n     * https://github.com/ethereum/EIPs/issues/20#issuecomment-263524729\r\n     *\r\n     * Emits an {Approval} event.\r\n     */\r\n    function approve(address spender, uint256 amount) external returns (bool);\r\n\r\n    /**\r\n     * @dev Moves `amount` tokens from `sender` to `recipient` using the\r\n     * allowance mechanism. `amount` is then deducted from the caller's\r\n     * allowance.\r\n     *\r\n     * Returns a boolean value indicating whether the operation succeeded.\r\n     *\r\n     * Emits a {Transfer} event.\r\n     */\r\n    function transferFrom(address sender, address recipient, uint256 amount) external returns (bool);\r\n    \r\n    function decimals() external view returns (uint8);\r\n\r\n    /**\r\n     * @dev Emitted when `value` tokens are moved from one account (`from`) to\r\n     * another (`to`).\r\n     *\r\n     * Note that `value` may be zero.\r\n     */\r\n    event Transfer(address indexed from, address indexed to, uint256 value);\r\n\r\n    /**\r\n     * @dev Emitted when the allowance of a `spender` for an `owner` is set by\r\n     * a call to {approve}. `value` is the new allowance.\r\n     */\r\n    event Approval(address indexed owner, address indexed spender, uint256 value);\r\n}\r\n\r\n\r\n\r\n/**\r\n * @dev Wrappers over Solidity's arithmetic operations with added overflow\r\n * checks.\r\n *\r\n * Arithmetic operations in Solidity wrap on overflow. This can easily result\r\n * in bugs, because programmers usually assume that an overflow raises an\r\n * error, which is the standard behavior in high level programming languages.\r\n * `SafeMath` restores this intuition by reverting the transaction when an\r\n * operation overflows.\r\n *\r\n * Using this library instead of the unchecked operations eliminates an entire\r\n * class of bugs, so it's recommended to use it always.\r\n */\r\n \r\nlibrary SafeMath {\r\n    /**\r\n     * @dev Returns the addition of two unsigned integers, reverting on\r\n     * overflow.\r\n     *\r\n     * Counterpart to Solidity's `+` operator.\r\n     *\r\n     * Requirements:\r\n     *\r\n     * - Addition cannot overflow.\r\n     */\r\n    function add(uint256 a, uint256 b) internal pure returns (uint256) {\r\n        uint256 c = a + b;\r\n        require(c >= a, \"SafeMath: addition overflow\");\r\n\r\n        return c;\r\n    }\r\n\r\n    /**\r\n     * @dev Returns the subtraction of two unsigned integers, reverting on\r\n     * overflow (when the result is negative).\r\n     *\r\n     * Counterpart to Solidity's `-` operator.\r\n     *\r\n     * Requirements:\r\n     *\r\n     * - Subtraction cannot overflow.\r\n     */\r\n    function sub(uint256 a, uint256 b) internal pure returns (uint256) {\r\n        return sub(a, b, \"SafeMath: subtraction overflow\");\r\n    }\r\n\r\n    /**\r\n     * @dev Returns the subtraction of two unsigned integers, reverting with custom message on\r\n     * overflow (when the result is negative).\r\n     *\r\n     * Counterpart to Solidity's `-` operator.\r\n     *\r\n     * Requirements:\r\n     *\r\n     * - Subtraction cannot overflow.\r\n     */\r\n    function sub(uint256 a, uint256 b, string memory errorMessage) internal pure returns (uint256) {\r\n        require(b <= a, errorMessage);\r\n        uint256 c = a - b;\r\n\r\n        return c;\r\n    }\r\n\r\n    /**\r\n     * @dev Returns the multiplication of two unsigned integers, reverting on\r\n     * overflow.\r\n     *\r\n     * Counterpart to Solidity's `*` operator.\r\n     *\r\n     * Requirements:\r\n     *\r\n     * - Multiplication cannot overflow.\r\n     */\r\n    function mul(uint256 a, uint256 b) internal pure returns (uint256) {\r\n        // Gas optimization: this is cheaper than requiring 'a' not being zero, but the\r\n        // benefit is lost if 'b' is also tested.\r\n        // See: https://github.com/OpenZeppelin/openzeppelin-contracts/pull/522\r\n        if (a == 0) {\r\n            return 0;\r\n        }\r\n\r\n        uint256 c = a * b;\r\n        require(c / a == b, \"SafeMath: multiplication overflow\");\r\n\r\n        return c;\r\n    }\r\n\r\n    /**\r\n     * @dev Returns the integer division of two unsigned integers. Reverts on\r\n     * division by zero. The result is rounded towards zero.\r\n     *\r\n     * Counterpart to Solidity's `/` operator. Note: this function uses a\r\n     * `revert` opcode (which leaves remaining gas untouched) while Solidity\r\n     * uses an invalid opcode to revert (consuming all remaining gas).\r\n     *\r\n     * Requirements:\r\n     *\r\n     * - The divisor cannot be zero.\r\n     */\r\n    function div(uint256 a, uint256 b) internal pure returns (uint256) {\r\n        return div(a, b, \"SafeMath: division by zero\");\r\n    }\r\n\r\n    /**\r\n     * @dev Returns the integer division of two unsigned integers. Reverts with custom message on\r\n     * division by zero. The result is rounded towards zero.\r\n     *\r\n     * Counterpart to Solidity's `/` operator. Note: this function uses a\r\n     * `revert` opcode (which leaves remaining gas untouched) while Solidity\r\n     * uses an invalid opcode to revert (consuming all remaining gas).\r\n     *\r\n     * Requirements:\r\n     *\r\n     * - The divisor cannot be zero.\r\n     */\r\n    function div(uint256 a, uint256 b, string memory errorMessage) internal pure returns (uint256) {\r\n        require(b > 0, errorMessage);\r\n        uint256 c = a / b;\r\n        // assert(a == b * c + a % b); // There is no case in which this doesn't hold\r\n\r\n        return c;\r\n    }\r\n\r\n    /**\r\n     * @dev Returns the remainder of dividing two unsigned integers. (unsigned integer modulo),\r\n     * Reverts when dividing by zero.\r\n     *\r\n     * Counterpart to Solidity's `%` operator. This function uses a `revert`\r\n     * opcode (which leaves remaining gas untouched) while Solidity uses an\r\n     * invalid opcode to revert (consuming all remaining gas).\r\n     *\r\n     * Requirements:\r\n     *\r\n     * - The divisor cannot be zero.\r\n     */\r\n    function mod(uint256 a, uint256 b) internal pure returns (uint256) {\r\n        return mod(a, b, \"SafeMath: modulo by zero\");\r\n    }\r\n\r\n    /**\r\n     * @dev Returns the remainder of dividing two unsigned integers. (unsigned integer modulo),\r\n     * Reverts with custom message when dividing by zero.\r\n     *\r\n     * Counterpart to Solidity's `%` operator. This function uses a `revert`\r\n     * opcode (which leaves remaining gas untouched) while Solidity uses an\r\n     * invalid opcode to revert (consuming all remaining gas).\r\n     *\r\n     * Requirements:\r\n     *\r\n     * - The divisor cannot be zero.\r\n     */\r\n    function mod(uint256 a, uint256 b, string memory errorMessage) internal pure returns (uint256) {\r\n        require(b != 0, errorMessage);\r\n        return a % b;\r\n    }\r\n}\r\n\r\n\r\ncontract UtopiaPresale {\r\n  using SafeMath for uint256;\r\n\r\n  // The token being sold\r\n  IERC20 public token;\r\n\r\n  // How many token units a buyer gets per wei\r\n  uint256 public bnbUtopiaRate;\r\n\r\n  // Amount of wei raised\r\n  uint256 public weiRaised;\r\n\r\n  // Admin address\r\n  address payable private admin;\r\n\r\n  // Map of purchase states\r\n  mapping(address => uint256) public purchasedBnb;\r\n\r\n  // List of Token purchasers\r\n  address[] public purchaserList;\r\n\r\n  // Maximum amount of BNB each account is allowed to buy\r\n  mapping (address => uint256) private bnbAllowanceForUser;\r\n\r\n  // Finalization state\r\n  bool public finalized;\r\n\r\n  uint256 public openingTime;\r\n\r\n  uint256 public tokensAlreadyPurchased;\r\n\r\n  /**\r\n   * Event for token purchase logging\r\n   * @param purchaser who paid for the tokens\r\n   * @param beneficiary who got the tokens\r\n   * @param bnbValue weis paid for purchase\r\n   * @param tokens amount of tokens purchased\r\n   */\r\n  event TokenPurchase(\r\n    address indexed purchaser,\r\n    address indexed beneficiary,\r\n    uint256 bnbValue,\r\n    uint256 tokens\r\n  );\r\n\r\n  /**\r\n   * Event for token withdrawal\r\n   * @param withdrawer who withdrew the tokens\r\n   * @param tokens amount of tokens purchased\r\n   */\r\n  event TokenWithdrawal(\r\n    address indexed withdrawer,\r\n    uint256 tokens\r\n  );\r\n\r\n  event CrowdsaleFinalized();\r\n\r\n  /**\r\n   * @param _bnbUtopiaRate Number of token units a buyer gets per wei\r\n   * @param _token Address of the token being sold\r\n   */\r\n  constructor(uint256 _bnbUtopiaRate, IERC20 _token, uint256 _openingTime) public {\r\n    // Rate should be 350 billion UTP = 600 BNB\r\n    require(_bnbUtopiaRate > 0);\r\n    require(_token != IERC20(address(0)));\r\n\r\n    bnbUtopiaRate = _bnbUtopiaRate;\r\n    token = _token;\r\n    admin = msg.sender;\r\n    finalized = false;\r\n    openingTime = _openingTime;\r\n  }\r\n\r\n  /**\r\n     * @return the crowdsale opening time.\r\n     */\r\n    function getOpeningTime() public view returns (uint256) {\r\n        return openingTime;\r\n    }\r\n\r\n    /**\r\n     * @return true if the crowdsale is open, false otherwise.\r\n     */\r\n    function isOpen() public view returns (bool) {\r\n        // solhint-disable-next-line not-rely-on-time\r\n        return block.timestamp >= openingTime;\r\n    }\r\n\r\n\r\n  // -----------------------------------------\r\n  // Crowdsale external interface\r\n  // -----------------------------------------\r\n\r\n  /**\r\n   * @dev fallback function ***DO NOT OVERRIDE***\r\n   */\r\n  fallback () external payable {\r\n    revert();    \r\n  }\r\n  \r\n  receive () external payable {\r\n    revert();\r\n  }\r\n\r\n\r\n  /**\r\n   * @dev low level token purchase ***DO NOT OVERRIDE***\r\n   * @param _beneficiary Address performing the token purchase\r\n   */\r\n  function buyTokens(address _beneficiary) public payable {\r\n\r\n    require(bnbAllowanceForUser[_beneficiary] > 0, \"Beneficiary does not have any Bnb allowance left\");\r\n\r\n    uint256 maxBnbAmount = maxBnb(_beneficiary);\r\n    uint256 weiAmountForPurchase = msg.value > maxBnbAmount ? maxBnbAmount : msg.value;\r\n\r\n    weiAmountForPurchase = _preValidatePurchase(_beneficiary, weiAmountForPurchase);\r\n\r\n    if (weiAmountForPurchase > 0) {\r\n      // calculate token amount that will be purchased\r\n      uint256 tokens = _getTokenAmount(weiAmountForPurchase);\r\n\r\n      // update state\r\n      weiRaised = weiRaised.add(weiAmountForPurchase);\r\n      emit TokenPurchase(\r\n        msg.sender,\r\n        _beneficiary,\r\n        weiAmountForPurchase,\r\n        tokens\r\n      );\r\n      _updatePurchasingState(_beneficiary, weiAmountForPurchase);\r\n    }\r\n\r\n    \r\n\r\n    if (msg.value > weiAmountForPurchase) {\r\n      uint256 refundAmount = msg.value.sub(weiAmountForPurchase);\r\n      msg.sender.transfer(refundAmount);\r\n    }\r\n  }\r\n\r\n  // -----------------------------------------\r\n  // Internal interface (extensible)\r\n  // -----------------------------------------\r\n\r\n  /**\r\n   * @dev Validation of an incoming purchase. Use require statements to revert state when conditions are not met. Use super to concatenate validations.\r\n   * @param _beneficiary Address performing the token purchase\r\n   * @param _weiAmountForPurchase Value in wei involved in the purchase\r\n   * @return Number of weis which can actually be used for purchase\r\n   */\r\n  function _preValidatePurchase(\r\n    address _beneficiary,\r\n    uint256 _weiAmountForPurchase\r\n  )\r\n    public view returns (uint256)\r\n  {\r\n    require(_beneficiary != address(0));\r\n    require(_weiAmountForPurchase != 0);\r\n\r\n    uint256 tokensToBePurchased = _getTokenAmount(_weiAmountForPurchase);\r\n\r\n    if (token.balanceOf(address(this)) >= tokensToBePurchased.add(tokensAlreadyPurchased)) {\r\n      return _weiAmountForPurchase;\r\n    } else {\r\n      tokensToBePurchased = token.balanceOf(address(this)).sub(tokensAlreadyPurchased);\r\n      return tokensToBePurchased.mul(1e9).div(bnbUtopiaRate);\r\n    }\r\n  }\r\n\r\n  \r\n\r\n  /**\r\n   * @dev Override for extensions that require an internal state to check for validity (current user contributions, etc.)\r\n   * @param _beneficiary Address receiving the tokens\r\n   * @param _weiAmountForPurchase Value in wei involved in the purchase\r\n   */\r\n  function _updatePurchasingState(\r\n    address _beneficiary,\r\n    uint256 _weiAmountForPurchase\r\n  )\r\n    internal\r\n  {\r\n    if (purchasedBnb[_beneficiary] == 0) {\r\n      purchaserList.push(_beneficiary);\r\n    }\r\n    purchasedBnb[_beneficiary] = purchasedBnb[_beneficiary].add(_weiAmountForPurchase);\r\n    bnbAllowanceForUser[_beneficiary] = bnbAllowanceForUser[_beneficiary].sub(_weiAmountForPurchase);\r\n    tokensAlreadyPurchased = tokensAlreadyPurchased.add(_getTokenAmount(_weiAmountForPurchase));\r\n  }\r\n\r\n  /**\r\n   * @dev Override to extend the way in which ether is converted to tokens.\r\n   * @param _weiAmountForPurchase Value in wei to be converted into tokens\r\n   * @return Number of tokens that can be purchased with the specified _weiAmountForPurchase\r\n   */\r\n  function _getTokenAmount(uint256 _weiAmountForPurchase)\r\n    public view returns (uint256)\r\n  {\r\n    return _weiAmountForPurchase.mul(bnbUtopiaRate).div(1e9);\r\n  }\r\n\r\n  /**\r\n   * @dev Determines how BNB is stored/forwarded on purchases.\r\n   */\r\n  function forwardFunds() external {\r\n    require(admin == msg.sender, \"not admin!\");\r\n    admin.transfer(address(this).balance);\r\n  }\r\n\r\n  function maxBnb(address _beneficiary) public view returns (uint256) {\r\n    return bnbAllowanceForUser[_beneficiary].sub(purchasedBnb[_beneficiary]);\r\n  }\r\n\r\n  function numberOfPurchasers() public view returns (uint256) {\r\n    return purchaserList.length;\r\n  }\r\n\r\n  /**\r\n     * @dev Must be called after crowdsale ends, to do some extra finalization\r\n     * work. Calls the contract's finalization function.\r\n     */\r\n  function finalize() public {\r\n      require(admin == msg.sender, \"not admin!\");\r\n      require(!finalized, \"Crowdsale already finalized\");\r\n\r\n      finalized = true;\r\n\r\n      emit CrowdsaleFinalized();\r\n  }\r\n\r\n  function withdrawTokens() public {\r\n      // calculate token amount to send for each purchaser and sends it\r\n      require(finalized, \"Crowdsale not finalized\");\r\n      uint256 tokens =  _getTokenAmount(purchasedBnb[msg.sender]);\r\n      require(tokens > 0, \"No tokens left to be withdrawn\");\r\n      \r\n      token.transfer(msg.sender, tokens);\r\n      purchasedBnb[msg.sender] = 0;\r\n\r\n      emit TokenWithdrawal(msg.sender, tokens);\r\n  }\r\n\r\n\r\n  function transferAnyERC20Token(address tokenAddress, uint256 tokens) external {\r\n    require(admin == msg.sender, \"not admin!\");\r\n    IERC20(tokenAddress).transfer(admin, tokens);\r\n  }\r\n\r\n  function setBnbAllowanceForUser(address _address, uint256 weiAllowed) public {\r\n    require(admin == msg.sender, \"not admin!\");\r\n    bnbAllowanceForUser[_address] = weiAllowed;\r\n    // Default should be 1000000000000000000 wei (1 BNB)\r\n  }\r\n\r\n  function viewBnbAllowanceForUser(address _address) public view returns (uint256) {\r\n    return bnbAllowanceForUser[_address];\r\n  }\r\n}",
  "sourcePath": "C:/Users/user/Documents/Utopia/Utopia-token/UtopiaToken/contracts/Presale.sol",
  "compiler": {
    "name": "solc",
    "version": "0.6.12+commit.27d51765.Emscripten.clang"
  },
  "schemaVersion": "3.4.0",
  "updatedAt": "2021-09-08T08:33:34.089Z",
  "networkType": "ethereum",
  "devdoc": {
    "events": {
      "TokenPurchase(address,address,uint256,uint256)": {
        "params": {
          "beneficiary": "who got the tokens",
          "bnbValue": "weis paid for purchase",
          "purchaser": "who paid for the tokens",
          "tokens": "amount of tokens purchased"
        }
      },
      "TokenWithdrawal(address,uint256)": {
        "params": {
          "tokens": "amount of tokens purchased",
          "withdrawer": "who withdrew the tokens"
        }
      }
    },
    "kind": "dev",
    "methods": {
      "_getTokenAmount(uint256)": {
        "details": "Override to extend the way in which ether is converted to tokens.",
        "params": {
          "_weiAmountForPurchase": "Value in wei to be converted into tokens"
        },
        "returns": {
          "_0": "Number of tokens that can be purchased with the specified _weiAmountForPurchase"
        }
      },
      "_preValidatePurchase(address,uint256)": {
        "details": "Validation of an incoming purchase. Use require statements to revert state when conditions are not met. Use super to concatenate validations.",
        "params": {
          "_beneficiary": "Address performing the token purchase",
          "_weiAmountForPurchase": "Value in wei involved in the purchase"
        },
        "returns": {
          "_0": "Number of weis which can actually be used for purchase"
        }
      },
      "buyTokens(address)": {
        "details": "low level token purchase ***DO NOT OVERRIDE***",
        "params": {
          "_beneficiary": "Address performing the token purchase"
        }
      },
      "constructor": {
        "params": {
          "_bnbUtopiaRate": "Number of token units a buyer gets per wei",
          "_token": "Address of the token being sold"
        }
      },
      "finalize()": {
        "details": "Must be called after crowdsale ends, to do some extra finalization work. Calls the contract's finalization function."
      },
      "forwardFunds()": {
        "details": "Determines how BNB is stored/forwarded on purchases."
      },
      "getOpeningTime()": {
        "returns": {
          "_0": "the crowdsale opening time."
        }
      },
      "isOpen()": {
        "returns": {
          "_0": "true if the crowdsale is open, false otherwise."
        }
      }
    },
    "version": 1
  },
  "userdoc": {
    "events": {
      "TokenPurchase(address,address,uint256,uint256)": {
        "notice": "Event for token purchase logging"
      },
      "TokenWithdrawal(address,uint256)": {
        "notice": "Event for token withdrawal"
      }
    },
    "kind": "user",
    "methods": {},
    "version": 1
  }
}