{
  "contractName": "UtopiaPresale",
  "abi": [
    {
      "inputs": [
        {
          "internalType": "uint256",
          "name": "_bnbUtopiaRate",
          "type": "uint256"
        },
        {
          "internalType": "contract IERC20",
          "name": "_token",
          "type": "address"
        },
        {
          "internalType": "uint256",
          "name": "_max",
          "type": "uint256"
        },
        {
          "internalType": "uint256",
          "name": "_openingTime",
          "type": "uint256"
        }
      ],
      "stateMutability": "nonpayable",
      "type": "constructor"
    },
    {
      "anonymous": false,
      "inputs": [],
      "name": "CrowdsaleFinalized",
      "type": "event"
    },
    {
      "anonymous": false,
      "inputs": [
        {
          "indexed": true,
          "internalType": "address",
          "name": "purchaser",
          "type": "address"
        },
        {
          "indexed": true,
          "internalType": "address",
          "name": "beneficiary",
          "type": "address"
        },
        {
          "indexed": false,
          "internalType": "uint256",
          "name": "bnbValue",
          "type": "uint256"
        },
        {
          "indexed": false,
          "internalType": "uint256",
          "name": "tokens",
          "type": "uint256"
        }
      ],
      "name": "TokenPurchase",
      "type": "event"
    },
    {
      "stateMutability": "payable",
      "type": "fallback",
      "payable": true
    },
    {
      "inputs": [],
      "name": "bnbUtopiaRate",
      "outputs": [
        {
          "internalType": "uint256",
          "name": "",
          "type": "uint256"
        }
      ],
      "stateMutability": "view",
      "type": "function",
      "constant": true
    },
    {
      "inputs": [],
      "name": "finalized",
      "outputs": [
        {
          "internalType": "bool",
          "name": "",
          "type": "bool"
        }
      ],
      "stateMutability": "view",
      "type": "function",
      "constant": true
    },
    {
      "inputs": [],
      "name": "openingTime",
      "outputs": [
        {
          "internalType": "uint256",
          "name": "",
          "type": "uint256"
        }
      ],
      "stateMutability": "view",
      "type": "function",
      "constant": true
    },
    {
      "inputs": [
        {
          "internalType": "address",
          "name": "",
          "type": "address"
        }
      ],
      "name": "purchasedBnb",
      "outputs": [
        {
          "internalType": "uint256",
          "name": "",
          "type": "uint256"
        }
      ],
      "stateMutability": "view",
      "type": "function",
      "constant": true
    },
    {
      "inputs": [
        {
          "internalType": "uint256",
          "name": "",
          "type": "uint256"
        }
      ],
      "name": "purchaserList",
      "outputs": [
        {
          "internalType": "address",
          "name": "",
          "type": "address"
        }
      ],
      "stateMutability": "view",
      "type": "function",
      "constant": true
    },
    {
      "inputs": [],
      "name": "token",
      "outputs": [
        {
          "internalType": "contract IERC20",
          "name": "",
          "type": "address"
        }
      ],
      "stateMutability": "view",
      "type": "function",
      "constant": true
    },
    {
      "inputs": [],
      "name": "tokensAlreadyPurchased",
      "outputs": [
        {
          "internalType": "uint256",
          "name": "",
          "type": "uint256"
        }
      ],
      "stateMutability": "view",
      "type": "function",
      "constant": true
    },
    {
      "inputs": [],
      "name": "weiMaxPurchaseBnb",
      "outputs": [
        {
          "internalType": "uint256",
          "name": "",
          "type": "uint256"
        }
      ],
      "stateMutability": "view",
      "type": "function",
      "constant": true
    },
    {
      "inputs": [],
      "name": "weiRaised",
      "outputs": [
        {
          "internalType": "uint256",
          "name": "",
          "type": "uint256"
        }
      ],
      "stateMutability": "view",
      "type": "function",
      "constant": true
    },
    {
      "stateMutability": "payable",
      "type": "receive",
      "payable": true
    },
    {
      "inputs": [],
      "name": "getOpeningTime",
      "outputs": [
        {
          "internalType": "uint256",
          "name": "",
          "type": "uint256"
        }
      ],
      "stateMutability": "view",
      "type": "function",
      "constant": true
    },
    {
      "inputs": [],
      "name": "isOpen",
      "outputs": [
        {
          "internalType": "bool",
          "name": "",
          "type": "bool"
        }
      ],
      "stateMutability": "view",
      "type": "function",
      "constant": true
    },
    {
      "inputs": [
        {
          "internalType": "address",
          "name": "_beneficiary",
          "type": "address"
        }
      ],
      "name": "buyTokens",
      "outputs": [],
      "stateMutability": "payable",
      "type": "function",
      "payable": true
    },
    {
      "inputs": [
        {
          "internalType": "address",
          "name": "_beneficiary",
          "type": "address"
        },
        {
          "internalType": "uint256",
          "name": "_weiAmountForPurchase",
          "type": "uint256"
        }
      ],
      "name": "_preValidatePurchase",
      "outputs": [
        {
          "internalType": "uint256",
          "name": "",
          "type": "uint256"
        }
      ],
      "stateMutability": "view",
      "type": "function",
      "constant": true
    },
    {
      "inputs": [
        {
          "internalType": "uint256",
          "name": "_weiAmountForPurchase",
          "type": "uint256"
        }
      ],
      "name": "_getTokenAmount",
      "outputs": [
        {
          "internalType": "uint256",
          "name": "",
          "type": "uint256"
        }
      ],
      "stateMutability": "view",
      "type": "function",
      "constant": true
    },
    {
      "inputs": [],
      "name": "forwardFunds",
      "outputs": [],
      "stateMutability": "nonpayable",
      "type": "function"
    },
    {
      "inputs": [
        {
          "internalType": "address",
          "name": "_beneficiary",
          "type": "address"
        }
      ],
      "name": "maxBnb",
      "outputs": [
        {
          "internalType": "uint256",
          "name": "",
          "type": "uint256"
        }
      ],
      "stateMutability": "view",
      "type": "function",
      "constant": true
    },
    {
      "inputs": [],
      "name": "finalize",
      "outputs": [],
      "stateMutability": "nonpayable",
      "type": "function"
    },
    {
      "inputs": [
        {
          "internalType": "address",
          "name": "tokenAddress",
          "type": "address"
        },
        {
          "internalType": "uint256",
          "name": "tokens",
          "type": "uint256"
        }
      ],
      "name": "transferAnyERC20Token",
      "outputs": [],
      "stateMutability": "nonpayable",
      "type": "function"
    }
  ],
  "bytecode": "0x608060405234801561001057600080fd5b506040516116bd3803806116bd8339818101604052608081101561003357600080fd5b81019080805190602001909291908051906020019092919080519060200190929190805190602001909291905050506000841161006f57600080fd5b6000821161007c57600080fd5b600073ffffffffffffffffffffffffffffffffffffffff168373ffffffffffffffffffffffffffffffffffffffff1614156100b657600080fd5b83600181905550826000806101000a81548173ffffffffffffffffffffffffffffffffffffffff021916908373ffffffffffffffffffffffffffffffffffffffff1602179055508160038190555033600460006101000a81548173ffffffffffffffffffffffffffffffffffffffff021916908373ffffffffffffffffffffffffffffffffffffffff1602179055506000600760006101000a81548160ff02191690831515021790555080600881905550505050506115438061017a6000396000f3fe60806040526004361061010d5760003560e01c80638eb8348911610095578063d746357311610064578063d7463573146103f9578063dc39d06d14610424578063ec8ac4d81461047f578063fc0c546a146104c3578063fcb2acd51461050457610117565b80638eb834891461035f5780639d7352861461038a578063b3f05b97146103a1578063b7a8807c146103ce57610117565b80634e780db2116100dc5780634e780db2146101b657806354c461e81461021b5780637a99bb0a1461028057806380a068e1146102cf5780638815ee86146102fa57610117565b8063093e78631461011c5780634042b66f1461014757806347535d7b146101725780634bb278f31461019f57610117565b3661011757600080fd5b600080fd5b34801561012857600080fd5b50610131610573565b6040518082815260200191505060405180910390f35b34801561015357600080fd5b5061015c610579565b6040518082815260200191505060405180910390f35b34801561017e57600080fd5b5061018761057f565b60405180821515815260200191505060405180910390f35b3480156101ab57600080fd5b506101b461058c565b005b3480156101c257600080fd5b50610205600480360360208110156101d957600080fd5b81019080803573ffffffffffffffffffffffffffffffffffffffff1690602001909291905050506108ae565b6040518082815260200191505060405180910390f35b34801561022757600080fd5b5061026a6004803603602081101561023e57600080fd5b81019080803573ffffffffffffffffffffffffffffffffffffffff16906020019092919050505061090b565b6040518082815260200191505060405180910390f35b34801561028c57600080fd5b506102b9600480360360208110156102a357600080fd5b8101908080359060200190929190505050610923565b6040518082815260200191505060405180910390f35b3480156102db57600080fd5b506102e4610957565b6040518082815260200191505060405180910390f35b34801561030657600080fd5b506103336004803603602081101561031d57600080fd5b810190808035906020019092919050505061095d565b604051808273ffffffffffffffffffffffffffffffffffffffff16815260200191505060405180910390f35b34801561036b57600080fd5b50610374610999565b6040518082815260200191505060405180910390f35b34801561039657600080fd5b5061039f61099f565b005b3480156103ad57600080fd5b506103b6610acd565b60405180821515815260200191505060405180910390f35b3480156103da57600080fd5b506103e3610ae0565b6040518082815260200191505060405180910390f35b34801561040557600080fd5b5061040e610ae6565b6040518082815260200191505060405180910390f35b34801561043057600080fd5b5061047d6004803603604081101561044757600080fd5b81019080803573ffffffffffffffffffffffffffffffffffffffff16906020019092919080359060200190929190505050610af0565b005b6104c16004803603602081101561049557600080fd5b81019080803573ffffffffffffffffffffffffffffffffffffffff169060200190929190505050610c86565b005b3480156104cf57600080fd5b506104d8610dc9565b604051808273ffffffffffffffffffffffffffffffffffffffff16815260200191505060405180910390f35b34801561051057600080fd5b5061055d6004803603604081101561052757600080fd5b81019080803573ffffffffffffffffffffffffffffffffffffffff16906020019092919080359060200190929190505050610ded565b6040518082815260200191505060405180910390f35b60095481565b60025481565b6000600854421015905090565b3373ffffffffffffffffffffffffffffffffffffffff16600460009054906101000a900473ffffffffffffffffffffffffffffffffffffffff1673ffffffffffffffffffffffffffffffffffffffff161461064f576040517f08c379a000000000000000000000000000000000000000000000000000000000815260040180806020018281038252600a8152602001807f6e6f742061646d696e210000000000000000000000000000000000000000000081525060200191505060405180910390fd5b600760009054906101000a900460ff16156106b5576040517f08c379a00000000000000000000000000000000000000000000000000000000081526004018080602001828103825260278152602001806114e76027913960400191505060405180910390fd5b60005b60068054905081101561086457600061074660056000600685815481106106db57fe5b9060005260206000200160009054906101000a900473ffffffffffffffffffffffffffffffffffffffff1673ffffffffffffffffffffffffffffffffffffffff1673ffffffffffffffffffffffffffffffffffffffff16815260200190815260200160002054610923565b905060008111156108565760008054906101000a900473ffffffffffffffffffffffffffffffffffffffff1673ffffffffffffffffffffffffffffffffffffffff1663a9059cbb6006848154811061079a57fe5b9060005260206000200160009054906101000a900473ffffffffffffffffffffffffffffffffffffffff16836040518363ffffffff1660e01b8152600401808373ffffffffffffffffffffffffffffffffffffffff16815260200182815260200192505050602060405180830381600087803b15801561081957600080fd5b505af115801561082d573d6000803e3d6000fd5b505050506040513d602081101561084357600080fd5b8101908080519060200190929190505050505b5080806001019150506106b8565b506001600760006101000a81548160ff0219169083151502179055507f9270cc390c096600a1c17c44345a1ba689fafd99d97487b10cfccf86cf73183660405160405180910390a1565b6000610904600560008473ffffffffffffffffffffffffffffffffffffffff1673ffffffffffffffffffffffffffffffffffffffff1681526020019081526020016000205460035461103590919063ffffffff16565b9050919050565b60056020528060005260406000206000915090505481565b6000610950633b9aca006109426001548561107f90919063ffffffff16565b61110590919063ffffffff16565b9050919050565b60015481565b6006818154811061096a57fe5b906000526020600020016000915054906101000a900473ffffffffffffffffffffffffffffffffffffffff1681565b60035481565b3373ffffffffffffffffffffffffffffffffffffffff16600460009054906101000a900473ffffffffffffffffffffffffffffffffffffffff1673ffffffffffffffffffffffffffffffffffffffff1614610a62576040517f08c379a000000000000000000000000000000000000000000000000000000000815260040180806020018281038252600a8152602001807f6e6f742061646d696e210000000000000000000000000000000000000000000081525060200191505060405180910390fd5b600460009054906101000a900473ffffffffffffffffffffffffffffffffffffffff1673ffffffffffffffffffffffffffffffffffffffff166108fc479081150290604051600060405180830381858888f19350505050158015610aca573d6000803e3d6000fd5b50565b600760009054906101000a900460ff1681565b60085481565b6000600854905090565b3373ffffffffffffffffffffffffffffffffffffffff16600460009054906101000a900473ffffffffffffffffffffffffffffffffffffffff1673ffffffffffffffffffffffffffffffffffffffff1614610bb3576040517f08c379a000000000000000000000000000000000000000000000000000000000815260040180806020018281038252600a8152602001807f6e6f742061646d696e210000000000000000000000000000000000000000000081525060200191505060405180910390fd5b8173ffffffffffffffffffffffffffffffffffffffff1663a9059cbb600460009054906101000a900473ffffffffffffffffffffffffffffffffffffffff16836040518363ffffffff1660e01b8152600401808373ffffffffffffffffffffffffffffffffffffffff16815260200182815260200192505050602060405180830381600087803b158015610c4657600080fd5b505af1158015610c5a573d6000803e3d6000fd5b505050506040513d6020811015610c7057600080fd5b8101908080519060200190929190505050505050565b6000610c91826108ae565b90506000813411610ca25734610ca4565b815b9050610cb08382610ded565b90506000811115610d5c576000610cc682610923565b9050610cdd8260025461114f90919063ffffffff16565b6002819055508373ffffffffffffffffffffffffffffffffffffffff163373ffffffffffffffffffffffffffffffffffffffff167f623b3804fa71d67900d064613da8f94b9617215ee90799290593e1745087ad188484604051808381526020018281526020019250505060405180910390a3610d5a84836111d7565b505b80341115610dc4576000610d79823461103590919063ffffffff16565b90503373ffffffffffffffffffffffffffffffffffffffff166108fc829081150290604051600060405180830381858888f19350505050158015610dc1573d6000803e3d6000fd5b50505b505050565b60008054906101000a900473ffffffffffffffffffffffffffffffffffffffff1681565b60008073ffffffffffffffffffffffffffffffffffffffff168373ffffffffffffffffffffffffffffffffffffffff161415610e2857600080fd5b6000821415610e3657600080fd5b6000610e4183610923565b9050610e586009548261114f90919063ffffffff16565b60008054906101000a900473ffffffffffffffffffffffffffffffffffffffff1673ffffffffffffffffffffffffffffffffffffffff166370a08231306040518263ffffffff1660e01b8152600401808273ffffffffffffffffffffffffffffffffffffffff16815260200191505060206040518083038186803b158015610edf57600080fd5b505afa158015610ef3573d6000803e3d6000fd5b505050506040513d6020811015610f0957600080fd5b810190808051906020019092919050505010610f28578291505061102f565b610ffe60095460008054906101000a900473ffffffffffffffffffffffffffffffffffffffff1673ffffffffffffffffffffffffffffffffffffffff166370a08231306040518263ffffffff1660e01b8152600401808273ffffffffffffffffffffffffffffffffffffffff16815260200191505060206040518083038186803b158015610fb557600080fd5b505afa158015610fc9573d6000803e3d6000fd5b505050506040513d6020811015610fdf57600080fd5b810190808051906020019092919050505061103590919063ffffffff16565b905061102b60015461101d633b9aca008461107f90919063ffffffff16565b61110590919063ffffffff16565b9150505b92915050565b600061107783836040518060400160405280601e81526020017f536166654d6174683a207375627472616374696f6e206f766572666c6f77000081525061133f565b905092915050565b60008083141561109257600090506110ff565b60008284029050828482816110a357fe5b04146110fa576040517f08c379a00000000000000000000000000000000000000000000000000000000081526004018080602001828103825260218152602001806114c66021913960400191505060405180910390fd5b809150505b92915050565b600061114783836040518060400160405280601a81526020017f536166654d6174683a206469766973696f6e206279207a65726f0000000000008152506113ff565b905092915050565b6000808284019050838110156111cd576040517f08c379a000000000000000000000000000000000000000000000000000000000815260040180806020018281038252601b8152602001807f536166654d6174683a206164646974696f6e206f766572666c6f77000000000081525060200191505060405180910390fd5b8091505092915050565b6000600560008473ffffffffffffffffffffffffffffffffffffffff1673ffffffffffffffffffffffffffffffffffffffff168152602001908152602001600020541415611283576006829080600181540180825580915050600190039060005260206000200160009091909190916101000a81548173ffffffffffffffffffffffffffffffffffffffff021916908373ffffffffffffffffffffffffffffffffffffffff1602179055505b6112d581600560008573ffffffffffffffffffffffffffffffffffffffff1673ffffffffffffffffffffffffffffffffffffffff1681526020019081526020016000205461114f90919063ffffffff16565b600560008473ffffffffffffffffffffffffffffffffffffffff1673ffffffffffffffffffffffffffffffffffffffff1681526020019081526020016000208190555061133561132482610923565b60095461114f90919063ffffffff16565b6009819055505050565b60008383111582906113ec576040517f08c379a00000000000000000000000000000000000000000000000000000000081526004018080602001828103825283818151815260200191508051906020019080838360005b838110156113b1578082015181840152602081019050611396565b50505050905090810190601f1680156113de5780820380516001836020036101000a031916815260200191505b509250505060405180910390fd5b5060008385039050809150509392505050565b600080831182906114ab576040517f08c379a00000000000000000000000000000000000000000000000000000000081526004018080602001828103825283818151815260200191508051906020019080838360005b83811015611470578082015181840152602081019050611455565b50505050905090810190601f16801561149d5780820380516001836020036101000a031916815260200191505b509250505060405180910390fd5b5060008385816114b757fe5b04905080915050939250505056fe536166654d6174683a206d756c7469706c69636174696f6e206f766572666c6f7746696e616c697a61626c6543726f776473616c653a20616c72656164792066696e616c697a6564a2646970667358221220369827337d8b4dbd0688089b14270a13910b0e3d6e80ebf939b3296f5c71177064736f6c634300060c0033",
  "immutableReferences": {},
  "source": "\r\n// SPDX-License-Identifier: Unlicensed\r\npragma solidity ^0.6.12;\r\n\r\ninterface IERC20 {\r\n\r\n    function totalSupply() external view returns (uint256);\r\n\r\n    /**\r\n     * @dev Returns the amount of tokens owned by `account`.\r\n     */\r\n    function balanceOf(address account) external view returns (uint256);\r\n\r\n    /**\r\n     * @dev Moves `amount` tokens from the caller's account to `recipient`.\r\n     *\r\n     * Returns a boolean value indicating whether the operation succeeded.\r\n     *\r\n     * Emits a {Transfer} event.\r\n     */\r\n    function transfer(address recipient, uint256 amount) external returns (bool);\r\n\r\n    /**\r\n     * @dev Returns the remaining number of tokens that `spender` will be\r\n     * allowed to spend on behalf of `owner` through {transferFrom}. This is\r\n     * zero by default.\r\n     *\r\n     * This value changes when {approve} or {transferFrom} are called.\r\n     */\r\n    function allowance(address owner, address spender) external view returns (uint256);\r\n\r\n    /**\r\n     * @dev Sets `amount` as the allowance of `spender` over the caller's tokens.\r\n     *\r\n     * Returns a boolean value indicating whether the operation succeeded.\r\n     *\r\n     * IMPORTANT: Beware that changing an allowance with this method brings the risk\r\n     * that someone may use both the old and the new allowance by unfortunate\r\n     * transaction ordering. One possible solution to mitigate this race\r\n     * condition is to first reduce the spender's allowance to 0 and set the\r\n     * desired value afterwards:\r\n     * https://github.com/ethereum/EIPs/issues/20#issuecomment-263524729\r\n     *\r\n     * Emits an {Approval} event.\r\n     */\r\n    function approve(address spender, uint256 amount) external returns (bool);\r\n\r\n    /**\r\n     * @dev Moves `amount` tokens from `sender` to `recipient` using the\r\n     * allowance mechanism. `amount` is then deducted from the caller's\r\n     * allowance.\r\n     *\r\n     * Returns a boolean value indicating whether the operation succeeded.\r\n     *\r\n     * Emits a {Transfer} event.\r\n     */\r\n    function transferFrom(address sender, address recipient, uint256 amount) external returns (bool);\r\n    \r\n    function decimals() external view returns (uint8);\r\n\r\n    /**\r\n     * @dev Emitted when `value` tokens are moved from one account (`from`) to\r\n     * another (`to`).\r\n     *\r\n     * Note that `value` may be zero.\r\n     */\r\n    event Transfer(address indexed from, address indexed to, uint256 value);\r\n\r\n    /**\r\n     * @dev Emitted when the allowance of a `spender` for an `owner` is set by\r\n     * a call to {approve}. `value` is the new allowance.\r\n     */\r\n    event Approval(address indexed owner, address indexed spender, uint256 value);\r\n}\r\n\r\n\r\n\r\n/**\r\n * @dev Wrappers over Solidity's arithmetic operations with added overflow\r\n * checks.\r\n *\r\n * Arithmetic operations in Solidity wrap on overflow. This can easily result\r\n * in bugs, because programmers usually assume that an overflow raises an\r\n * error, which is the standard behavior in high level programming languages.\r\n * `SafeMath` restores this intuition by reverting the transaction when an\r\n * operation overflows.\r\n *\r\n * Using this library instead of the unchecked operations eliminates an entire\r\n * class of bugs, so it's recommended to use it always.\r\n */\r\n \r\nlibrary SafeMath {\r\n    /**\r\n     * @dev Returns the addition of two unsigned integers, reverting on\r\n     * overflow.\r\n     *\r\n     * Counterpart to Solidity's `+` operator.\r\n     *\r\n     * Requirements:\r\n     *\r\n     * - Addition cannot overflow.\r\n     */\r\n    function add(uint256 a, uint256 b) internal pure returns (uint256) {\r\n        uint256 c = a + b;\r\n        require(c >= a, \"SafeMath: addition overflow\");\r\n\r\n        return c;\r\n    }\r\n\r\n    /**\r\n     * @dev Returns the subtraction of two unsigned integers, reverting on\r\n     * overflow (when the result is negative).\r\n     *\r\n     * Counterpart to Solidity's `-` operator.\r\n     *\r\n     * Requirements:\r\n     *\r\n     * - Subtraction cannot overflow.\r\n     */\r\n    function sub(uint256 a, uint256 b) internal pure returns (uint256) {\r\n        return sub(a, b, \"SafeMath: subtraction overflow\");\r\n    }\r\n\r\n    /**\r\n     * @dev Returns the subtraction of two unsigned integers, reverting with custom message on\r\n     * overflow (when the result is negative).\r\n     *\r\n     * Counterpart to Solidity's `-` operator.\r\n     *\r\n     * Requirements:\r\n     *\r\n     * - Subtraction cannot overflow.\r\n     */\r\n    function sub(uint256 a, uint256 b, string memory errorMessage) internal pure returns (uint256) {\r\n        require(b <= a, errorMessage);\r\n        uint256 c = a - b;\r\n\r\n        return c;\r\n    }\r\n\r\n    /**\r\n     * @dev Returns the multiplication of two unsigned integers, reverting on\r\n     * overflow.\r\n     *\r\n     * Counterpart to Solidity's `*` operator.\r\n     *\r\n     * Requirements:\r\n     *\r\n     * - Multiplication cannot overflow.\r\n     */\r\n    function mul(uint256 a, uint256 b) internal pure returns (uint256) {\r\n        // Gas optimization: this is cheaper than requiring 'a' not being zero, but the\r\n        // benefit is lost if 'b' is also tested.\r\n        // See: https://github.com/OpenZeppelin/openzeppelin-contracts/pull/522\r\n        if (a == 0) {\r\n            return 0;\r\n        }\r\n\r\n        uint256 c = a * b;\r\n        require(c / a == b, \"SafeMath: multiplication overflow\");\r\n\r\n        return c;\r\n    }\r\n\r\n    /**\r\n     * @dev Returns the integer division of two unsigned integers. Reverts on\r\n     * division by zero. The result is rounded towards zero.\r\n     *\r\n     * Counterpart to Solidity's `/` operator. Note: this function uses a\r\n     * `revert` opcode (which leaves remaining gas untouched) while Solidity\r\n     * uses an invalid opcode to revert (consuming all remaining gas).\r\n     *\r\n     * Requirements:\r\n     *\r\n     * - The divisor cannot be zero.\r\n     */\r\n    function div(uint256 a, uint256 b) internal pure returns (uint256) {\r\n        return div(a, b, \"SafeMath: division by zero\");\r\n    }\r\n\r\n    /**\r\n     * @dev Returns the integer division of two unsigned integers. Reverts with custom message on\r\n     * division by zero. The result is rounded towards zero.\r\n     *\r\n     * Counterpart to Solidity's `/` operator. Note: this function uses a\r\n     * `revert` opcode (which leaves remaining gas untouched) while Solidity\r\n     * uses an invalid opcode to revert (consuming all remaining gas).\r\n     *\r\n     * Requirements:\r\n     *\r\n     * - The divisor cannot be zero.\r\n     */\r\n    function div(uint256 a, uint256 b, string memory errorMessage) internal pure returns (uint256) {\r\n        require(b > 0, errorMessage);\r\n        uint256 c = a / b;\r\n        // assert(a == b * c + a % b); // There is no case in which this doesn't hold\r\n\r\n        return c;\r\n    }\r\n\r\n    /**\r\n     * @dev Returns the remainder of dividing two unsigned integers. (unsigned integer modulo),\r\n     * Reverts when dividing by zero.\r\n     *\r\n     * Counterpart to Solidity's `%` operator. This function uses a `revert`\r\n     * opcode (which leaves remaining gas untouched) while Solidity uses an\r\n     * invalid opcode to revert (consuming all remaining gas).\r\n     *\r\n     * Requirements:\r\n     *\r\n     * - The divisor cannot be zero.\r\n     */\r\n    function mod(uint256 a, uint256 b) internal pure returns (uint256) {\r\n        return mod(a, b, \"SafeMath: modulo by zero\");\r\n    }\r\n\r\n    /**\r\n     * @dev Returns the remainder of dividing two unsigned integers. (unsigned integer modulo),\r\n     * Reverts with custom message when dividing by zero.\r\n     *\r\n     * Counterpart to Solidity's `%` operator. This function uses a `revert`\r\n     * opcode (which leaves remaining gas untouched) while Solidity uses an\r\n     * invalid opcode to revert (consuming all remaining gas).\r\n     *\r\n     * Requirements:\r\n     *\r\n     * - The divisor cannot be zero.\r\n     */\r\n    function mod(uint256 a, uint256 b, string memory errorMessage) internal pure returns (uint256) {\r\n        require(b != 0, errorMessage);\r\n        return a % b;\r\n    }\r\n}\r\n\r\n\r\ncontract UtopiaPresale {\r\n  using SafeMath for uint256;\r\n\r\n  // The token being sold\r\n  IERC20 public token;\r\n\r\n  // How many token units a buyer gets per wei\r\n  uint256 public bnbUtopiaRate;\r\n\r\n  // Amount of wei raised\r\n  uint256 public weiRaised;\r\n\r\n  // Amount of max wei to buy with bnb\r\n  uint256 public weiMaxPurchaseBnb;\r\n\r\n  // Admin address\r\n  address payable private admin;\r\n\r\n  // Map of purchase states\r\n  mapping(address => uint256) public purchasedBnb;\r\n\r\n  // List of Token purchasers\r\n  address[] public purchaserList;\r\n\r\n  // Finalization state\r\n  bool public finalized;\r\n\r\n  uint256 public openingTime;\r\n\r\n  uint256 public tokensAlreadyPurchased;\r\n\r\n  /**\r\n   * Event for token purchase logging\r\n   * @param purchaser who paid for the tokens\r\n   * @param beneficiary who got the tokens\r\n   * @param bnbValue weis paid for purchase\r\n   * @param tokens amount of tokens purchased\r\n   */\r\n  event TokenPurchase(\r\n    address indexed purchaser,\r\n    address indexed beneficiary,\r\n    uint256 bnbValue,\r\n    uint256 tokens\r\n  );\r\n\r\n  event CrowdsaleFinalized();\r\n\r\n  /**\r\n   * @param _bnbUtopiaRate Number of token units a buyer gets per wei\r\n   * @param _token Address of the token being sold\r\n   */\r\n  constructor(uint256 _bnbUtopiaRate, IERC20 _token, uint256 _max, uint256 _openingTime) public {\r\n    require(_bnbUtopiaRate > 0);\r\n    require(_max > 0);\r\n    require(_token != IERC20(address(0)));\r\n\r\n    bnbUtopiaRate = _bnbUtopiaRate;\r\n    token = _token;\r\n    weiMaxPurchaseBnb = _max;\r\n    admin = msg.sender;\r\n    finalized = false;\r\n    openingTime = _openingTime;\r\n  }\r\n\r\n  /**\r\n     * @return the crowdsale opening time.\r\n     */\r\n    function getOpeningTime() public view returns (uint256) {\r\n        return openingTime;\r\n    }\r\n\r\n    /**\r\n     * @return true if the crowdsale is open, false otherwise.\r\n     */\r\n    function isOpen() public view returns (bool) {\r\n        // solhint-disable-next-line not-rely-on-time\r\n        return block.timestamp >= openingTime;\r\n    }\r\n\r\n\r\n  // -----------------------------------------\r\n  // Crowdsale external interface\r\n  // -----------------------------------------\r\n\r\n  /**\r\n   * @dev fallback function ***DO NOT OVERRIDE***\r\n   */\r\n  fallback () external payable {\r\n    revert();    \r\n  }\r\n  \r\n  receive () external payable {\r\n    revert();\r\n  }\r\n\r\n  /**\r\n   * @dev low level token purchase ***DO NOT OVERRIDE***\r\n   * @param _beneficiary Address performing the token purchase\r\n   */\r\n  function buyTokens(address _beneficiary) public payable {\r\n    uint256 maxBnbAmount = maxBnb(_beneficiary);\r\n    uint256 weiAmountForPurchase = msg.value > maxBnbAmount ? maxBnbAmount : msg.value;\r\n\r\n    weiAmountForPurchase = _preValidatePurchase(_beneficiary, weiAmountForPurchase);\r\n\r\n    if (weiAmountForPurchase > 0) {\r\n      // calculate token amount that will be purchased\r\n      uint256 tokens = _getTokenAmount(weiAmountForPurchase);\r\n\r\n      // update state\r\n      weiRaised = weiRaised.add(weiAmountForPurchase);\r\n      emit TokenPurchase(\r\n        msg.sender,\r\n        _beneficiary,\r\n        weiAmountForPurchase,\r\n        tokens\r\n      );\r\n      _updatePurchasingState(_beneficiary, weiAmountForPurchase);\r\n    }\r\n\r\n    \r\n\r\n    if (msg.value > weiAmountForPurchase) {\r\n      uint256 refundAmount = msg.value.sub(weiAmountForPurchase);\r\n      msg.sender.transfer(refundAmount);\r\n    }\r\n  }\r\n\r\n  // -----------------------------------------\r\n  // Internal interface (extensible)\r\n  // -----------------------------------------\r\n\r\n  /**\r\n   * @dev Validation of an incoming purchase. Use require statements to revert state when conditions are not met. Use super to concatenate validations.\r\n   * @param _beneficiary Address performing the token purchase\r\n   * @param _weiAmountForPurchase Value in wei involved in the purchase\r\n   * @return Number of weis which can actually be used for purchase\r\n   */\r\n  function _preValidatePurchase(\r\n    address _beneficiary,\r\n    uint256 _weiAmountForPurchase\r\n  )\r\n    public view returns (uint256)\r\n  {\r\n    require(_beneficiary != address(0));\r\n    require(_weiAmountForPurchase != 0);\r\n\r\n    uint256 tokensToBePurchased = _getTokenAmount(_weiAmountForPurchase);\r\n\r\n    if (token.balanceOf(address(this)) >= tokensToBePurchased.add(tokensAlreadyPurchased)) {\r\n      return _weiAmountForPurchase;\r\n    } else {\r\n      tokensToBePurchased = token.balanceOf(address(this)).sub(tokensAlreadyPurchased);\r\n      return tokensToBePurchased.mul(1e9).div(bnbUtopiaRate);\r\n    }\r\n  }\r\n\r\n  \r\n\r\n  /**\r\n   * @dev Override for extensions that require an internal state to check for validity (current user contributions, etc.)\r\n   * @param _beneficiary Address receiving the tokens\r\n   * @param _weiAmountForPurchase Value in wei involved in the purchase\r\n   */\r\n  function _updatePurchasingState(\r\n    address _beneficiary,\r\n    uint256 _weiAmountForPurchase\r\n  )\r\n    internal\r\n  {\r\n    if (purchasedBnb[_beneficiary] == 0) {\r\n      purchaserList.push(_beneficiary);\r\n    }\r\n    purchasedBnb[_beneficiary] = purchasedBnb[_beneficiary].add(_weiAmountForPurchase);\r\n    tokensAlreadyPurchased = tokensAlreadyPurchased.add(_getTokenAmount(_weiAmountForPurchase));\r\n  }\r\n\r\n  /**\r\n   * @dev Override to extend the way in which ether is converted to tokens.\r\n   * @param _weiAmountForPurchase Value in wei to be converted into tokens\r\n   * @return Number of tokens that can be purchased with the specified _weiAmountForPurchase\r\n   */\r\n  function _getTokenAmount(uint256 _weiAmountForPurchase)\r\n    public view returns (uint256)\r\n  {\r\n    return _weiAmountForPurchase.mul(bnbUtopiaRate).div(1e9);\r\n  }\r\n\r\n  /**\r\n   * @dev Determines how BNB is stored/forwarded on purchases.\r\n   */\r\n  function forwardFunds() external {\r\n    require(admin == msg.sender, \"not admin!\");\r\n    admin.transfer(address(this).balance);\r\n  }\r\n\r\n  function maxBnb(address _beneficiary) public view returns (uint256) {\r\n    return weiMaxPurchaseBnb.sub(purchasedBnb[_beneficiary]);\r\n  }\r\n\r\n  /**\r\n     * @dev Must be called after crowdsale ends, to do some extra finalization\r\n     * work. Calls the contract's finalization function.\r\n     */\r\n    function finalize() public {\r\n        require(admin == msg.sender, \"not admin!\");\r\n        require(!finalized, \"FinalizableCrowdsale: already finalized\");\r\n\r\n        // calculate token amount to send for each purchaser and sends it\r\n        for (uint i=0; i<purchaserList.length; i++) {\r\n          uint256 tokens = _getTokenAmount(purchasedBnb[purchaserList[i]]);\r\n          if (tokens > 0) {\r\n            token.transfer(purchaserList[i], tokens);\r\n          }\r\n        }\r\n\r\n        finalized = true;\r\n\r\n        emit CrowdsaleFinalized();\r\n    }\r\n\r\n\r\n  function transferAnyERC20Token(address tokenAddress, uint256 tokens) external {\r\n    require(admin == msg.sender, \"not admin!\");\r\n    IERC20(tokenAddress).transfer(admin, tokens);\r\n  }\r\n}",
  "sourcePath": "C:/Users/user/Documents/Utopia/UtopiaToken/contracts/Presale.sol",
  "compiler": {
    "name": "solc",
    "version": "0.6.12+commit.27d51765.Emscripten.clang"
  },
  "schemaVersion": "3.4.0",
  "updatedAt": "2021-05-22T02:07:44.825Z",
  "networkType": "ethereum",
  "devdoc": {
    "events": {
      "TokenPurchase(address,address,uint256,uint256)": {
        "params": {
          "beneficiary": "who got the tokens",
          "bnbValue": "weis paid for purchase",
          "purchaser": "who paid for the tokens",
          "tokens": "amount of tokens purchased"
        }
      }
    },
    "kind": "dev",
    "methods": {
      "_getTokenAmount(uint256)": {
        "details": "Override to extend the way in which ether is converted to tokens.",
        "params": {
          "_weiAmountForPurchase": "Value in wei to be converted into tokens"
        },
        "returns": {
          "_0": "Number of tokens that can be purchased with the specified _weiAmountForPurchase"
        }
      },
      "_preValidatePurchase(address,uint256)": {
        "details": "Validation of an incoming purchase. Use require statements to revert state when conditions are not met. Use super to concatenate validations.",
        "params": {
          "_beneficiary": "Address performing the token purchase",
          "_weiAmountForPurchase": "Value in wei involved in the purchase"
        },
        "returns": {
          "_0": "Number of weis which can actually be used for purchase"
        }
      },
      "buyTokens(address)": {
        "details": "low level token purchase ***DO NOT OVERRIDE***",
        "params": {
          "_beneficiary": "Address performing the token purchase"
        }
      },
      "constructor": {
        "params": {
          "_bnbUtopiaRate": "Number of token units a buyer gets per wei",
          "_token": "Address of the token being sold"
        }
      },
      "finalize()": {
        "details": "Must be called after crowdsale ends, to do some extra finalization work. Calls the contract's finalization function."
      },
      "forwardFunds()": {
        "details": "Determines how BNB is stored/forwarded on purchases."
      },
      "getOpeningTime()": {
        "returns": {
          "_0": "the crowdsale opening time."
        }
      },
      "isOpen()": {
        "returns": {
          "_0": "true if the crowdsale is open, false otherwise."
        }
      }
    },
    "version": 1
  },
  "userdoc": {
    "events": {
      "TokenPurchase(address,address,uint256,uint256)": {
        "notice": "Event for token purchase logging"
      }
    },
    "kind": "user",
    "methods": {},
    "version": 1
  }
}